{
  "_format": "hh-sol-artifact-1",
  "contractName": "MemeNFT",
  "sourceName": "contracts/MemeNFT.sol",
  "abi": [
    {
      "inputs": [
        {
          "internalType": "uint256",
          "name": "_mintFee",
          "type": "uint256"
        },
        {
          "internalType": "uint256",
          "name": "_decimals",
          "type": "uint256"
        }
      ],
      "stateMutability": "nonpayable",
      "type": "constructor"
    },
    {
      "anonymous": false,
      "inputs": [
        {
          "indexed": true,
          "internalType": "address",
          "name": "owner",
          "type": "address"
        },
        {
          "indexed": true,
          "internalType": "address",
          "name": "approved",
          "type": "address"
        },
        {
          "indexed": true,
          "internalType": "uint256",
          "name": "tokenId",
          "type": "uint256"
        }
      ],
      "name": "Approval",
      "type": "event"
    },
    {
      "anonymous": false,
      "inputs": [
        {
          "indexed": true,
          "internalType": "address",
          "name": "owner",
          "type": "address"
        },
        {
          "indexed": true,
          "internalType": "address",
          "name": "operator",
          "type": "address"
        },
        {
          "indexed": false,
          "internalType": "bool",
          "name": "approved",
          "type": "bool"
        }
      ],
      "name": "ApprovalForAll",
      "type": "event"
    },
    {
      "anonymous": false,
      "inputs": [
        {
          "indexed": true,
          "internalType": "address",
          "name": "previousOwner",
          "type": "address"
        },
        {
          "indexed": true,
          "internalType": "address",
          "name": "newOwner",
          "type": "address"
        }
      ],
      "name": "OwnershipTransferred",
      "type": "event"
    },
    {
      "anonymous": false,
      "inputs": [
        {
          "indexed": true,
          "internalType": "address",
          "name": "from",
          "type": "address"
        },
        {
          "indexed": true,
          "internalType": "address",
          "name": "to",
          "type": "address"
        },
        {
          "indexed": true,
          "internalType": "uint256",
          "name": "tokenId",
          "type": "uint256"
        }
      ],
      "name": "Transfer",
      "type": "event"
    },
    {
      "stateMutability": "nonpayable",
      "type": "fallback"
    },
    {
      "inputs": [
        {
          "internalType": "address",
          "name": "to",
          "type": "address"
        },
        {
          "internalType": "uint256",
          "name": "tokenId",
          "type": "uint256"
        }
      ],
      "name": "approve",
      "outputs": [],
      "stateMutability": "nonpayable",
      "type": "function"
    },
    {
      "inputs": [
        {
          "internalType": "address",
          "name": "owner",
          "type": "address"
        }
      ],
      "name": "balanceOf",
      "outputs": [
        {
          "internalType": "uint256",
          "name": "",
          "type": "uint256"
        }
      ],
      "stateMutability": "view",
      "type": "function"
    },
    {
      "inputs": [
        {
          "internalType": "uint256",
          "name": "tokenId",
          "type": "uint256"
        }
      ],
      "name": "getApproved",
      "outputs": [
        {
          "internalType": "address",
          "name": "",
          "type": "address"
        }
      ],
      "stateMutability": "view",
      "type": "function"
    },
    {
      "inputs": [],
      "name": "getMintFee",
      "outputs": [
        {
          "internalType": "uint256",
          "name": "",
          "type": "uint256"
        }
      ],
      "stateMutability": "view",
      "type": "function"
    },
    {
      "inputs": [
        {
          "internalType": "address",
          "name": "_user",
          "type": "address"
        }
      ],
      "name": "getUserMemeIds",
      "outputs": [
        {
          "internalType": "uint256[]",
          "name": "",
          "type": "uint256[]"
        }
      ],
      "stateMutability": "view",
      "type": "function"
    },
    {
      "inputs": [
        {
          "internalType": "address",
          "name": "owner",
          "type": "address"
        },
        {
          "internalType": "address",
          "name": "operator",
          "type": "address"
        }
      ],
      "name": "isApprovedForAll",
      "outputs": [
        {
          "internalType": "bool",
          "name": "",
          "type": "bool"
        }
      ],
      "stateMutability": "view",
      "type": "function"
    },
    {
      "inputs": [],
      "name": "name",
      "outputs": [
        {
          "internalType": "string",
          "name": "",
          "type": "string"
        }
      ],
      "stateMutability": "view",
      "type": "function"
    },
    {
      "inputs": [],
      "name": "owner",
      "outputs": [
        {
          "internalType": "address",
          "name": "",
          "type": "address"
        }
      ],
      "stateMutability": "view",
      "type": "function"
    },
    {
      "inputs": [
        {
          "internalType": "uint256",
          "name": "tokenId",
          "type": "uint256"
        }
      ],
      "name": "ownerOf",
      "outputs": [
        {
          "internalType": "address",
          "name": "",
          "type": "address"
        }
      ],
      "stateMutability": "view",
      "type": "function"
    },
    {
      "inputs": [],
      "name": "renounceOwnership",
      "outputs": [],
      "stateMutability": "nonpayable",
      "type": "function"
    },
    {
      "inputs": [
        {
          "internalType": "address",
          "name": "to",
          "type": "address"
        },
        {
          "internalType": "string",
          "name": "uri",
          "type": "string"
        }
      ],
      "name": "safeMint",
      "outputs": [],
      "stateMutability": "payable",
      "type": "function"
    },
    {
      "inputs": [
        {
          "internalType": "address",
          "name": "from",
          "type": "address"
        },
        {
          "internalType": "address",
          "name": "to",
          "type": "address"
        },
        {
          "internalType": "uint256",
          "name": "tokenId",
          "type": "uint256"
        }
      ],
      "name": "safeTransferFrom",
      "outputs": [],
      "stateMutability": "nonpayable",
      "type": "function"
    },
    {
      "inputs": [
        {
          "internalType": "address",
          "name": "from",
          "type": "address"
        },
        {
          "internalType": "address",
          "name": "to",
          "type": "address"
        },
        {
          "internalType": "uint256",
          "name": "tokenId",
          "type": "uint256"
        },
        {
          "internalType": "bytes",
          "name": "data",
          "type": "bytes"
        }
      ],
      "name": "safeTransferFrom",
      "outputs": [],
      "stateMutability": "nonpayable",
      "type": "function"
    },
    {
      "inputs": [
        {
          "internalType": "address",
          "name": "to",
          "type": "address"
        },
        {
          "internalType": "uint256",
          "name": "tokenId",
          "type": "uint256"
        }
      ],
      "name": "sendMeme",
      "outputs": [],
      "stateMutability": "nonpayable",
      "type": "function"
    },
    {
      "inputs": [
        {
          "internalType": "address",
          "name": "operator",
          "type": "address"
        },
        {
          "internalType": "bool",
          "name": "approved",
          "type": "bool"
        }
      ],
      "name": "setApprovalForAll",
      "outputs": [],
      "stateMutability": "nonpayable",
      "type": "function"
    },
    {
      "inputs": [
        {
          "internalType": "bytes4",
          "name": "interfaceId",
          "type": "bytes4"
        }
      ],
      "name": "supportsInterface",
      "outputs": [
        {
          "internalType": "bool",
          "name": "",
          "type": "bool"
        }
      ],
      "stateMutability": "view",
      "type": "function"
    },
    {
      "inputs": [],
      "name": "symbol",
      "outputs": [
        {
          "internalType": "string",
          "name": "",
          "type": "string"
        }
      ],
      "stateMutability": "view",
      "type": "function"
    },
    {
      "inputs": [
        {
          "internalType": "uint256",
          "name": "index",
          "type": "uint256"
        }
      ],
      "name": "tokenByIndex",
      "outputs": [
        {
          "internalType": "uint256",
          "name": "",
          "type": "uint256"
        }
      ],
      "stateMutability": "view",
      "type": "function"
    },
    {
      "inputs": [
        {
          "internalType": "address",
          "name": "owner",
          "type": "address"
        },
        {
          "internalType": "uint256",
          "name": "index",
          "type": "uint256"
        }
      ],
      "name": "tokenOfOwnerByIndex",
      "outputs": [
        {
          "internalType": "uint256",
          "name": "",
          "type": "uint256"
        }
      ],
      "stateMutability": "view",
      "type": "function"
    },
    {
      "inputs": [
        {
          "internalType": "uint256",
          "name": "tokenId",
          "type": "uint256"
        }
      ],
      "name": "tokenURI",
      "outputs": [
        {
          "internalType": "string",
          "name": "",
          "type": "string"
        }
      ],
      "stateMutability": "view",
      "type": "function"
    },
    {
      "inputs": [],
      "name": "totalSupply",
      "outputs": [
        {
          "internalType": "uint256",
          "name": "",
          "type": "uint256"
        }
      ],
      "stateMutability": "view",
      "type": "function"
    },
    {
      "inputs": [
        {
          "internalType": "address",
          "name": "from",
          "type": "address"
        },
        {
          "internalType": "address",
          "name": "to",
          "type": "address"
        },
        {
          "internalType": "uint256",
          "name": "tokenId",
          "type": "uint256"
        }
      ],
      "name": "transferFrom",
      "outputs": [],
      "stateMutability": "nonpayable",
      "type": "function"
    },
    {
      "inputs": [
        {
          "internalType": "address",
          "name": "newOwner",
          "type": "address"
        }
      ],
      "name": "transferOwnership",
      "outputs": [],
      "stateMutability": "nonpayable",
      "type": "function"
    }
  ],
  "bytecode": "0x60806040523480156200001157600080fd5b5060405162004384380380620043848339818101604052810190620000379190620002d1565b6040518060400160405280600781526020017f4d656d654e4654000000000000000000000000000000000000000000000000008152506040518060400160405280600481526020017f4d4e4654000000000000000000000000000000000000000000000000000000008152508160009080519060200190620000bb9291906200020a565b508060019080519060200190620000d49291906200020a565b505050620000f7620000eb6200013c60201b60201c565b6200014460201b60201c565b600081600a620001089190620003a5565b905080670de0b6b3a764000084620001219190620004e2565b6200012d919062000312565b600d8190555050505062000637565b600033905090565b6000600b60009054906101000a900473ffffffffffffffffffffffffffffffffffffffff16905081600b60006101000a81548173ffffffffffffffffffffffffffffffffffffffff021916908373ffffffffffffffffffffffffffffffffffffffff1602179055508173ffffffffffffffffffffffffffffffffffffffff168173ffffffffffffffffffffffffffffffffffffffff167f8be0079c531659141344cd1fd0a4f28419497f9722a3daafe3b4186f6b6457e060405160405180910390a35050565b82805462000218906200054d565b90600052602060002090601f0160209004810192826200023c576000855562000288565b82601f106200025757805160ff191683800117855562000288565b8280016001018555821562000288579182015b82811115620002875782518255916020019190600101906200026a565b5b5090506200029791906200029b565b5090565b5b80821115620002b65760008160009055506001016200029c565b5090565b600081519050620002cb816200061d565b92915050565b60008060408385031215620002e557600080fd5b6000620002f585828601620002ba565b92505060206200030885828601620002ba565b9150509250929050565b60006200031f8262000543565b91506200032c8362000543565b9250826200033f576200033e620005b2565b5b828204905092915050565b6000808291508390505b60018511156200039c5780860481111562000374576200037362000583565b5b6001851615620003845780820291505b8081029050620003948562000610565b945062000354565b94509492505050565b6000620003b28262000543565b9150620003bf8362000543565b9250620003ee7fffffffffffffffffffffffffffffffffffffffffffffffffffffffffffffffff8484620003f6565b905092915050565b600082620004085760019050620004db565b81620004185760009050620004db565b81600181146200043157600281146200043c5762000472565b6001915050620004db565b60ff84111562000451576200045062000583565b5b8360020a9150848211156200046b576200046a62000583565b5b50620004db565b5060208310610133831016604e8410600b8410161715620004ac5782820a905083811115620004a657620004a562000583565b5b620004db565b620004bb84848460016200034a565b92509050818404811115620004d557620004d462000583565b5b81810290505b9392505050565b6000620004ef8262000543565b9150620004fc8362000543565b9250817fffffffffffffffffffffffffffffffffffffffffffffffffffffffffffffffff048311821515161562000538576200053762000583565b5b828202905092915050565b6000819050919050565b600060028204905060018216806200056657607f821691505b602082108114156200057d576200057c620005e1565b5b50919050565b7f4e487b7100000000000000000000000000000000000000000000000000000000600052601160045260246000fd5b7f4e487b7100000000000000000000000000000000000000000000000000000000600052601260045260246000fd5b7f4e487b7100000000000000000000000000000000000000000000000000000000600052602260045260246000fd5b60008160011c9050919050565b620006288162000543565b81146200063457600080fd5b50565b613d3d80620006476000396000f3fe6080604052600436106101445760003560e01c806370a08231116100b6578063a22cb4651161006f578063a22cb46514610494578063b88d4fde146104bd578063c87b56dd146104e6578063d204c45e14610523578063e985e9c51461053f578063f2fde38b1461057c57610145565b806370a0823114610396578063715018a6146103d35780637a5caab3146103ea5780637fd3e3f2146104155780638da5cb5b1461043e57806395d89b411461046957610145565b806323b872dd1161010857806323b872dd146102505780632f745c591461027957806342842e0e146102b6578063484e296a146102df5780634f6ccce71461031c5780636352211e1461035957610145565b806301ffc9a71461015757806306fdde0314610194578063081812fc146101bf578063095ea7b3146101fc57806318160ddd1461022557610145565b5b34801561015157600080fd5b50600080fd5b34801561016357600080fd5b5061017e60048036038101906101799190612ba6565b6105a5565b60405161018b91906130f4565b60405180910390f35b3480156101a057600080fd5b506101a96105b7565b6040516101b6919061310f565b60405180910390f35b3480156101cb57600080fd5b506101e660048036038101906101e19190612bf8565b610649565b6040516101f3919061306b565b60405180910390f35b34801561020857600080fd5b50610223600480360381019061021e9190612b6a565b61068f565b005b34801561023157600080fd5b5061023a6107a7565b6040516102479190613391565b60405180910390f35b34801561025c57600080fd5b5061027760048036038101906102729190612a10565b6107b4565b005b34801561028557600080fd5b506102a0600480360381019061029b9190612b6a565b610814565b6040516102ad9190613391565b60405180910390f35b3480156102c257600080fd5b506102dd60048036038101906102d89190612a10565b6108b9565b005b3480156102eb57600080fd5b50610306600480360381019061030191906129ab565b6108d9565b60405161031391906130d2565b60405180910390f35b34801561032857600080fd5b50610343600480360381019061033e9190612bf8565b610bcb565b6040516103509190613391565b60405180910390f35b34801561036557600080fd5b50610380600480360381019061037b9190612bf8565b610c62565b60405161038d919061306b565b60405180910390f35b3480156103a257600080fd5b506103bd60048036038101906103b891906129ab565b610d14565b6040516103ca9190613391565b60405180910390f35b3480156103df57600080fd5b506103e8610dcc565b005b3480156103f657600080fd5b506103ff610de0565b60405161040c9190613391565b60405180910390f35b34801561042157600080fd5b5061043c60048036038101906104379190612b6a565b610dea565b005b34801561044a57600080fd5b50610453610e03565b604051610460919061306b565b60405180910390f35b34801561047557600080fd5b5061047e610e2d565b60405161048b919061310f565b60405180910390f35b3480156104a057600080fd5b506104bb60048036038101906104b69190612ada565b610ebf565b005b3480156104c957600080fd5b506104e460048036038101906104df9190612a5f565b610ed5565b005b3480156104f257600080fd5b5061050d60048036038101906105089190612bf8565b610f37565b60405161051a919061310f565b60405180910390f35b61053d60048036038101906105389190612b16565b610f49565b005b34801561054b57600080fd5b50610566600480360381019061056191906129d4565b61107c565b60405161057391906130f4565b60405180910390f35b34801561058857600080fd5b506105a3600480360381019061059e91906129ab565b611110565b005b60006105b082611194565b9050919050565b6060600080546105c69061362b565b80601f01602080910402602001604051908101604052809291908181526020018280546105f29061362b565b801561063f5780601f106106145761010080835404028352916020019161063f565b820191906000526020600020905b81548152906001019060200180831161062257829003601f168201915b5050505050905090565b60006106548261120e565b6004600083815260200190815260200160002060009054906101000a900473ffffffffffffffffffffffffffffffffffffffff169050919050565b600061069a82610c62565b90508073ffffffffffffffffffffffffffffffffffffffff168373ffffffffffffffffffffffffffffffffffffffff16141561070b576040517f08c379a000000000000000000000000000000000000000000000000000000000815260040161070290613331565b60405180910390fd5b8073ffffffffffffffffffffffffffffffffffffffff1661072a611259565b73ffffffffffffffffffffffffffffffffffffffff161480610759575061075881610753611259565b61107c565b5b610798576040517f08c379a000000000000000000000000000000000000000000000000000000000815260040161078f90613291565b60405180910390fd5b6107a28383611261565b505050565b6000600880549050905090565b6107c56107bf611259565b8261131a565b610804576040517f08c379a00000000000000000000000000000000000000000000000000000000081526004016107fb90613371565b60405180910390fd5b61080f8383836113af565b505050565b600061081f83610d14565b8210610860576040517f08c379a000000000000000000000000000000000000000000000000000000000815260040161085790613171565b60405180910390fd5b600660008473ffffffffffffffffffffffffffffffffffffffff1673ffffffffffffffffffffffffffffffffffffffff168152602001908152602001600020600083815260200190815260200160002054905092915050565b6108d483838360405180602001604052806000815250610ed5565b505050565b6060600073ffffffffffffffffffffffffffffffffffffffff168273ffffffffffffffffffffffffffffffffffffffff16141561094b576040517f08c379a000000000000000000000000000000000000000000000000000000000815260040161094290613151565b60405180910390fd5b600061095683610d14565b67ffffffffffffffff811115610995577f4e487b7100000000000000000000000000000000000000000000000000000000600052604160045260246000fd5b6040519080825280602002602001820160405280156109c35781602001602082028036833780820191505090505b5090506000805b600e60008673ffffffffffffffffffffffffffffffffffffffff1673ffffffffffffffffffffffffffffffffffffffff16815260200190815260200160002080549050811015610bc0576000600e60008773ffffffffffffffffffffffffffffffffffffffff1673ffffffffffffffffffffffffffffffffffffffff1681526020019081526020016000208281548110610a8d577f4e487b7100000000000000000000000000000000000000000000000000000000600052603260045260246000fd5b906000526020600020015490508573ffffffffffffffffffffffffffffffffffffffff16610aba82610c62565b73ffffffffffffffffffffffffffffffffffffffff161415610bac57600e60008773ffffffffffffffffffffffffffffffffffffffff1673ffffffffffffffffffffffffffffffffffffffff1681526020019081526020016000208281548110610b4d577f4e487b7100000000000000000000000000000000000000000000000000000000600052603260045260246000fd5b9060005260206000200154848481518110610b91577f4e487b7100000000000000000000000000000000000000000000000000000000600052603260045260246000fd5b6020026020010181815250508280610ba89061368e565b9350505b508080610bb89061368e565b9150506109ca565b508192505050919050565b6000610bd56107a7565b8210610c16576040517f08c379a0000000000000000000000000000000000000000000000000000000008152600401610c0d90613351565b60405180910390fd5b60088281548110610c50577f4e487b7100000000000000000000000000000000000000000000000000000000600052603260045260246000fd5b90600052602060002001549050919050565b6000806002600084815260200190815260200160002060009054906101000a900473ffffffffffffffffffffffffffffffffffffffff169050600073ffffffffffffffffffffffffffffffffffffffff168173ffffffffffffffffffffffffffffffffffffffff161415610d0b576040517f08c379a0000000000000000000000000000000000000000000000000000000008152600401610d0290613311565b60405180910390fd5b80915050919050565b60008073ffffffffffffffffffffffffffffffffffffffff168273ffffffffffffffffffffffffffffffffffffffff161415610d85576040517f08c379a0000000000000000000000000000000000000000000000000000000008152600401610d7c90613251565b60405180910390fd5b600360008373ffffffffffffffffffffffffffffffffffffffff1673ffffffffffffffffffffffffffffffffffffffff168152602001908152602001600020549050919050565b610dd4611616565b610dde6000611694565b565b6000600d54905090565b610df53383836113af565b610dff828261175a565b5050565b6000600b60009054906101000a900473ffffffffffffffffffffffffffffffffffffffff16905090565b606060018054610e3c9061362b565b80601f0160208091040260200160405190810160405280929190818152602001828054610e689061362b565b8015610eb55780601f10610e8a57610100808354040283529160200191610eb5565b820191906000526020600020905b815481529060010190602001808311610e9857829003601f168201915b5050505050905090565b610ed1610eca611259565b83836117c4565b5050565b610ee6610ee0611259565b8361131a565b610f25576040517f08c379a0000000000000000000000000000000000000000000000000000000008152600401610f1c90613371565b60405180910390fd5b610f3184848484611931565b50505050565b6060610f428261198d565b9050919050565b34600d5414610f8d576040517f08c379a0000000000000000000000000000000000000000000000000000000008152600401610f84906132d1565b60405180910390fd5b6000610f97610e03565b73ffffffffffffffffffffffffffffffffffffffff1634604051610fba90613056565b60006040518083038185875af1925050503d8060008114610ff7576040519150601f19603f3d011682016040523d82523d6000602084013e610ffc565b606091505b5050905080611040576040517f08c379a000000000000000000000000000000000000000000000000000000000815260040161103790613131565b60405180910390fd5b600061104c600c611aa0565b9050611058600c611aae565b6110628482611ac4565b61106c8184611ae2565b611076338261175a565b50505050565b6000600560008473ffffffffffffffffffffffffffffffffffffffff1673ffffffffffffffffffffffffffffffffffffffff16815260200190815260200160002060008373ffffffffffffffffffffffffffffffffffffffff1673ffffffffffffffffffffffffffffffffffffffff16815260200190815260200160002060009054906101000a900460ff16905092915050565b611118611616565b600073ffffffffffffffffffffffffffffffffffffffff168173ffffffffffffffffffffffffffffffffffffffff161415611188576040517f08c379a000000000000000000000000000000000000000000000000000000000815260040161117f906131b1565b60405180910390fd5b61119181611694565b50565b60007f780e9d63000000000000000000000000000000000000000000000000000000007bffffffffffffffffffffffffffffffffffffffffffffffffffffffff1916827bffffffffffffffffffffffffffffffffffffffffffffffffffffffff19161480611207575061120682611b56565b5b9050919050565b61121781611c38565b611256576040517f08c379a000000000000000000000000000000000000000000000000000000000815260040161124d90613311565b60405180910390fd5b50565b600033905090565b816004600083815260200190815260200160002060006101000a81548173ffffffffffffffffffffffffffffffffffffffff021916908373ffffffffffffffffffffffffffffffffffffffff160217905550808273ffffffffffffffffffffffffffffffffffffffff166112d483610c62565b73ffffffffffffffffffffffffffffffffffffffff167f8c5be1e5ebec7d5bd14f71427d1e84f3dd0314c0f7b2291e5b200ac8c7c3b92560405160405180910390a45050565b60008061132683610c62565b90508073ffffffffffffffffffffffffffffffffffffffff168473ffffffffffffffffffffffffffffffffffffffff1614806113685750611367818561107c565b5b806113a657508373ffffffffffffffffffffffffffffffffffffffff1661138e84610649565b73ffffffffffffffffffffffffffffffffffffffff16145b91505092915050565b8273ffffffffffffffffffffffffffffffffffffffff166113cf82610c62565b73ffffffffffffffffffffffffffffffffffffffff1614611425576040517f08c379a000000000000000000000000000000000000000000000000000000000815260040161141c906131d1565b60405180910390fd5b600073ffffffffffffffffffffffffffffffffffffffff168273ffffffffffffffffffffffffffffffffffffffff161415611495576040517f08c379a000000000000000000000000000000000000000000000000000000000815260040161148c90613211565b60405180910390fd5b6114a0838383611ca4565b6114ab600082611261565b6001600360008573ffffffffffffffffffffffffffffffffffffffff1673ffffffffffffffffffffffffffffffffffffffff16815260200190815260200160002060008282546114fb9190613541565b925050819055506001600360008473ffffffffffffffffffffffffffffffffffffffff1673ffffffffffffffffffffffffffffffffffffffff168152602001908152602001600020600082825461155291906134ba565b92505081905550816002600083815260200190815260200160002060006101000a81548173ffffffffffffffffffffffffffffffffffffffff021916908373ffffffffffffffffffffffffffffffffffffffff160217905550808273ffffffffffffffffffffffffffffffffffffffff168473ffffffffffffffffffffffffffffffffffffffff167fddf252ad1be2c89b69c2b068fc378daa952ba7f163c4a11628f55a4df523b3ef60405160405180910390a4611611838383611cb4565b505050565b61161e611259565b73ffffffffffffffffffffffffffffffffffffffff1661163c610e03565b73ffffffffffffffffffffffffffffffffffffffff1614611692576040517f08c379a0000000000000000000000000000000000000000000000000000000008152600401611689906132f1565b60405180910390fd5b565b6000600b60009054906101000a900473ffffffffffffffffffffffffffffffffffffffff16905081600b60006101000a81548173ffffffffffffffffffffffffffffffffffffffff021916908373ffffffffffffffffffffffffffffffffffffffff1602179055508173ffffffffffffffffffffffffffffffffffffffff168173ffffffffffffffffffffffffffffffffffffffff167f8be0079c531659141344cd1fd0a4f28419497f9722a3daafe3b4186f6b6457e060405160405180910390a35050565b600e60008373ffffffffffffffffffffffffffffffffffffffff1673ffffffffffffffffffffffffffffffffffffffff1681526020019081526020016000208190806001815401808255809150506001900390600052602060002001600090919091909150555050565b8173ffffffffffffffffffffffffffffffffffffffff168373ffffffffffffffffffffffffffffffffffffffff161415611833576040517f08c379a000000000000000000000000000000000000000000000000000000000815260040161182a90613231565b60405180910390fd5b80600560008573ffffffffffffffffffffffffffffffffffffffff1673ffffffffffffffffffffffffffffffffffffffff16815260200190815260200160002060008473ffffffffffffffffffffffffffffffffffffffff1673ffffffffffffffffffffffffffffffffffffffff16815260200190815260200160002060006101000a81548160ff0219169083151502179055508173ffffffffffffffffffffffffffffffffffffffff168373ffffffffffffffffffffffffffffffffffffffff167f17307eab39ab6107e8899845ad3d59bd9653f200f220920489ca2b5937696c318360405161192491906130f4565b60405180910390a3505050565b61193c8484846113af565b61194884848484611cb9565b611987576040517f08c379a000000000000000000000000000000000000000000000000000000000815260040161197e90613191565b60405180910390fd5b50505050565b60606119988261120e565b6000600a600084815260200190815260200160002080546119b89061362b565b80601f01602080910402602001604051908101604052809291908181526020018280546119e49061362b565b8015611a315780601f10611a0657610100808354040283529160200191611a31565b820191906000526020600020905b815481529060010190602001808311611a1457829003601f168201915b505050505090506000611a42611e50565b9050600081511415611a58578192505050611a9b565b600082511115611a8d578082604051602001611a75929190613032565b60405160208183030381529060405292505050611a9b565b611a9684611e67565b925050505b919050565b600081600001549050919050565b6001816000016000828254019250508190555050565b611ade828260405180602001604052806000815250611ecf565b5050565b611aeb82611c38565b611b2a576040517f08c379a0000000000000000000000000000000000000000000000000000000008152600401611b2190613271565b60405180910390fd5b80600a60008481526020019081526020016000209080519060200190611b519291906127cf565b505050565b60007f80ac58cd000000000000000000000000000000000000000000000000000000007bffffffffffffffffffffffffffffffffffffffffffffffffffffffff1916827bffffffffffffffffffffffffffffffffffffffffffffffffffffffff19161480611c2157507f5b5e139f000000000000000000000000000000000000000000000000000000007bffffffffffffffffffffffffffffffffffffffffffffffffffffffff1916827bffffffffffffffffffffffffffffffffffffffffffffffffffffffff1916145b80611c315750611c3082611f2a565b5b9050919050565b60008073ffffffffffffffffffffffffffffffffffffffff166002600084815260200190815260200160002060009054906101000a900473ffffffffffffffffffffffffffffffffffffffff1673ffffffffffffffffffffffffffffffffffffffff1614159050919050565b611caf838383611f94565b505050565b505050565b6000611cda8473ffffffffffffffffffffffffffffffffffffffff166120a8565b15611e43578373ffffffffffffffffffffffffffffffffffffffff1663150b7a02611d03611259565b8786866040518563ffffffff1660e01b8152600401611d259493929190613086565b602060405180830381600087803b158015611d3f57600080fd5b505af1925050508015611d7057506040513d601f19601f82011682018060405250810190611d6d9190612bcf565b60015b611df3573d8060008114611da0576040519150601f19603f3d011682016040523d82523d6000602084013e611da5565b606091505b50600081511415611deb576040517f08c379a0000000000000000000000000000000000000000000000000000000008152600401611de290613191565b60405180910390fd5b805181602001fd5b63150b7a0260e01b7bffffffffffffffffffffffffffffffffffffffffffffffffffffffff1916817bffffffffffffffffffffffffffffffffffffffffffffffffffffffff191614915050611e48565b600190505b949350505050565b606060405180602001604052806000815250905090565b6060611e728261120e565b6000611e7c611e50565b90506000815111611e9c5760405180602001604052806000815250611ec7565b80611ea6846120cb565b604051602001611eb7929190613032565b6040516020818303038152906040525b915050919050565b611ed98383612278565b611ee66000848484611cb9565b611f25576040517f08c379a0000000000000000000000000000000000000000000000000000000008152600401611f1c90613191565b60405180910390fd5b505050565b60007f01ffc9a7000000000000000000000000000000000000000000000000000000007bffffffffffffffffffffffffffffffffffffffffffffffffffffffff1916827bffffffffffffffffffffffffffffffffffffffffffffffffffffffff1916149050919050565b611f9f838383612452565b600073ffffffffffffffffffffffffffffffffffffffff168373ffffffffffffffffffffffffffffffffffffffff161415611fe257611fdd81612457565b612021565b8173ffffffffffffffffffffffffffffffffffffffff168373ffffffffffffffffffffffffffffffffffffffff16146120205761201f83826124a0565b5b5b600073ffffffffffffffffffffffffffffffffffffffff168273ffffffffffffffffffffffffffffffffffffffff1614156120645761205f8161260d565b6120a3565b8273ffffffffffffffffffffffffffffffffffffffff168273ffffffffffffffffffffffffffffffffffffffff16146120a2576120a18282612750565b5b5b505050565b6000808273ffffffffffffffffffffffffffffffffffffffff163b119050919050565b60606000821415612113576040518060400160405280600181526020017f30000000000000000000000000000000000000000000000000000000000000008152509050612273565b600082905060005b6000821461214557808061212e9061368e565b915050600a8261213e9190613510565b915061211b565b60008167ffffffffffffffff811115612187577f4e487b7100000000000000000000000000000000000000000000000000000000600052604160045260246000fd5b6040519080825280601f01601f1916602001820160405280156121b95781602001600182028036833780820191505090505b5090505b6000851461226c576001826121d29190613541565b9150600a856121e191906136d7565b60306121ed91906134ba565b60f81b818381518110612229577f4e487b7100000000000000000000000000000000000000000000000000000000600052603260045260246000fd5b60200101907effffffffffffffffffffffffffffffffffffffffffffffffffffffffffffff1916908160001a905350600a856122659190613510565b94506121bd565b8093505050505b919050565b600073ffffffffffffffffffffffffffffffffffffffff168273ffffffffffffffffffffffffffffffffffffffff1614156122e8576040517f08c379a00000000000000000000000000000000000000000000000000000000081526004016122df906132b1565b60405180910390fd5b6122f181611c38565b15612331576040517f08c379a0000000000000000000000000000000000000000000000000000000008152600401612328906131f1565b60405180910390fd5b61233d60008383611ca4565b6001600360008473ffffffffffffffffffffffffffffffffffffffff1673ffffffffffffffffffffffffffffffffffffffff168152602001908152602001600020600082825461238d91906134ba565b92505081905550816002600083815260200190815260200160002060006101000a81548173ffffffffffffffffffffffffffffffffffffffff021916908373ffffffffffffffffffffffffffffffffffffffff160217905550808273ffffffffffffffffffffffffffffffffffffffff16600073ffffffffffffffffffffffffffffffffffffffff167fddf252ad1be2c89b69c2b068fc378daa952ba7f163c4a11628f55a4df523b3ef60405160405180910390a461244e60008383611cb4565b5050565b505050565b6008805490506009600083815260200190815260200160002081905550600881908060018154018082558091505060019003906000526020600020016000909190919091505550565b600060016124ad84610d14565b6124b79190613541565b905060006007600084815260200190815260200160002054905081811461259c576000600660008673ffffffffffffffffffffffffffffffffffffffff1673ffffffffffffffffffffffffffffffffffffffff168152602001908152602001600020600084815260200190815260200160002054905080600660008773ffffffffffffffffffffffffffffffffffffffff1673ffffffffffffffffffffffffffffffffffffffff168152602001908152602001600020600084815260200190815260200160002081905550816007600083815260200190815260200160002081905550505b6007600084815260200190815260200160002060009055600660008573ffffffffffffffffffffffffffffffffffffffff1673ffffffffffffffffffffffffffffffffffffffff16815260200190815260200160002060008381526020019081526020016000206000905550505050565b600060016008805490506126219190613541565b9050600060096000848152602001908152602001600020549050600060088381548110612677577f4e487b7100000000000000000000000000000000000000000000000000000000600052603260045260246000fd5b9060005260206000200154905080600883815481106126bf577f4e487b7100000000000000000000000000000000000000000000000000000000600052603260045260246000fd5b906000526020600020018190555081600960008381526020019081526020016000208190555060096000858152602001908152602001600020600090556008805480612734577f4e487b7100000000000000000000000000000000000000000000000000000000600052603160045260246000fd5b6001900381819060005260206000200160009055905550505050565b600061275b83610d14565b905081600660008573ffffffffffffffffffffffffffffffffffffffff1673ffffffffffffffffffffffffffffffffffffffff168152602001908152602001600020600083815260200190815260200160002081905550806007600084815260200190815260200160002081905550505050565b8280546127db9061362b565b90600052602060002090601f0160209004810192826127fd5760008555612844565b82601f1061281657805160ff1916838001178555612844565b82800160010185558215612844579182015b82811115612843578251825591602001919060010190612828565b5b5090506128519190612855565b5090565b5b8082111561286e576000816000905550600101612856565b5090565b6000612885612880846133d1565b6133ac565b90508281526020810184848401111561289d57600080fd5b6128a88482856135e9565b509392505050565b60006128c36128be84613402565b6133ac565b9050828152602081018484840111156128db57600080fd5b6128e68482856135e9565b509392505050565b6000813590506128fd81613cab565b92915050565b60008135905061291281613cc2565b92915050565b60008135905061292781613cd9565b92915050565b60008151905061293c81613cd9565b92915050565b600082601f83011261295357600080fd5b8135612963848260208601612872565b91505092915050565b600082601f83011261297d57600080fd5b813561298d8482602086016128b0565b91505092915050565b6000813590506129a581613cf0565b92915050565b6000602082840312156129bd57600080fd5b60006129cb848285016128ee565b91505092915050565b600080604083850312156129e757600080fd5b60006129f5858286016128ee565b9250506020612a06858286016128ee565b9150509250929050565b600080600060608486031215612a2557600080fd5b6000612a33868287016128ee565b9350506020612a44868287016128ee565b9250506040612a5586828701612996565b9150509250925092565b60008060008060808587031215612a7557600080fd5b6000612a83878288016128ee565b9450506020612a94878288016128ee565b9350506040612aa587828801612996565b925050606085013567ffffffffffffffff811115612ac257600080fd5b612ace87828801612942565b91505092959194509250565b60008060408385031215612aed57600080fd5b6000612afb858286016128ee565b9250506020612b0c85828601612903565b9150509250929050565b60008060408385031215612b2957600080fd5b6000612b37858286016128ee565b925050602083013567ffffffffffffffff811115612b5457600080fd5b612b608582860161296c565b9150509250929050565b60008060408385031215612b7d57600080fd5b6000612b8b858286016128ee565b9250506020612b9c85828601612996565b9150509250929050565b600060208284031215612bb857600080fd5b6000612bc684828501612918565b91505092915050565b600060208284031215612be157600080fd5b6000612bef8482850161292d565b91505092915050565b600060208284031215612c0a57600080fd5b6000612c1884828501612996565b91505092915050565b6000612c2d8383613014565b60208301905092915050565b612c4281613575565b82525050565b6000612c5382613443565b612c5d8185613471565b9350612c6883613433565b8060005b83811015612c99578151612c808882612c21565b9750612c8b83613464565b925050600181019050612c6c565b5085935050505092915050565b612caf81613587565b82525050565b6000612cc08261344e565b612cca8185613482565b9350612cda8185602086016135f8565b612ce3816137c4565b840191505092915050565b6000612cf982613459565b612d03818561349e565b9350612d138185602086016135f8565b612d1c816137c4565b840191505092915050565b6000612d3282613459565b612d3c81856134af565b9350612d4c8185602086016135f8565b80840191505092915050565b6000612d6560168361349e565b9150612d70826137d5565b602082019050919050565b6000612d88600f8361349e565b9150612d93826137fe565b602082019050919050565b6000612dab602b8361349e565b9150612db682613827565b604082019050919050565b6000612dce60328361349e565b9150612dd982613876565b604082019050919050565b6000612df160268361349e565b9150612dfc826138c5565b604082019050919050565b6000612e1460258361349e565b9150612e1f82613914565b604082019050919050565b6000612e37601c8361349e565b9150612e4282613963565b602082019050919050565b6000612e5a60248361349e565b9150612e658261398c565b604082019050919050565b6000612e7d60198361349e565b9150612e88826139db565b602082019050919050565b6000612ea060298361349e565b9150612eab82613a04565b604082019050919050565b6000612ec3602e8361349e565b9150612ece82613a53565b604082019050919050565b6000612ee6603e8361349e565b9150612ef182613aa2565b604082019050919050565b6000612f0960208361349e565b9150612f1482613af1565b602082019050919050565b6000612f2c60238361349e565b9150612f3782613b1a565b604082019050919050565b6000612f4f60208361349e565b9150612f5a82613b69565b602082019050919050565b6000612f7260188361349e565b9150612f7d82613b92565b602082019050919050565b6000612f9560218361349e565b9150612fa082613bbb565b604082019050919050565b6000612fb8600083613493565b9150612fc382613c0a565b600082019050919050565b6000612fdb602c8361349e565b9150612fe682613c0d565b604082019050919050565b6000612ffe602e8361349e565b915061300982613c5c565b604082019050919050565b61301d816135df565b82525050565b61302c816135df565b82525050565b600061303e8285612d27565b915061304a8284612d27565b91508190509392505050565b600061306182612fab565b9150819050919050565b60006020820190506130806000830184612c39565b92915050565b600060808201905061309b6000830187612c39565b6130a86020830186612c39565b6130b56040830185613023565b81810360608301526130c78184612cb5565b905095945050505050565b600060208201905081810360008301526130ec8184612c48565b905092915050565b60006020820190506131096000830184612ca6565b92915050565b600060208201905081810360008301526131298184612cee565b905092915050565b6000602082019050818103600083015261314a81612d58565b9050919050565b6000602082019050818103600083015261316a81612d7b565b9050919050565b6000602082019050818103600083015261318a81612d9e565b9050919050565b600060208201905081810360008301526131aa81612dc1565b9050919050565b600060208201905081810360008301526131ca81612de4565b9050919050565b600060208201905081810360008301526131ea81612e07565b9050919050565b6000602082019050818103600083015261320a81612e2a565b9050919050565b6000602082019050818103600083015261322a81612e4d565b9050919050565b6000602082019050818103600083015261324a81612e70565b9050919050565b6000602082019050818103600083015261326a81612e93565b9050919050565b6000602082019050818103600083015261328a81612eb6565b9050919050565b600060208201905081810360008301526132aa81612ed9565b9050919050565b600060208201905081810360008301526132ca81612efc565b9050919050565b600060208201905081810360008301526132ea81612f1f565b9050919050565b6000602082019050818103600083015261330a81612f42565b9050919050565b6000602082019050818103600083015261332a81612f65565b9050919050565b6000602082019050818103600083015261334a81612f88565b9050919050565b6000602082019050818103600083015261336a81612fce565b9050919050565b6000602082019050818103600083015261338a81612ff1565b9050919050565b60006020820190506133a66000830184613023565b92915050565b60006133b66133c7565b90506133c2828261365d565b919050565b6000604051905090565b600067ffffffffffffffff8211156133ec576133eb613795565b5b6133f5826137c4565b9050602081019050919050565b600067ffffffffffffffff82111561341d5761341c613795565b5b613426826137c4565b9050602081019050919050565b6000819050602082019050919050565b600081519050919050565b600081519050919050565b600081519050919050565b6000602082019050919050565b600082825260208201905092915050565b600082825260208201905092915050565b600081905092915050565b600082825260208201905092915050565b600081905092915050565b60006134c5826135df565b91506134d0836135df565b9250827fffffffffffffffffffffffffffffffffffffffffffffffffffffffffffffffff0382111561350557613504613708565b5b828201905092915050565b600061351b826135df565b9150613526836135df565b92508261353657613535613737565b5b828204905092915050565b600061354c826135df565b9150613557836135df565b92508282101561356a57613569613708565b5b828203905092915050565b6000613580826135bf565b9050919050565b60008115159050919050565b60007fffffffff0000000000000000000000000000000000000000000000000000000082169050919050565b600073ffffffffffffffffffffffffffffffffffffffff82169050919050565b6000819050919050565b82818337600083830152505050565b60005b838110156136165780820151818401526020810190506135fb565b83811115613625576000848401525b50505050565b6000600282049050600182168061364357607f821691505b6020821081141561365757613656613766565b5b50919050565b613666826137c4565b810181811067ffffffffffffffff8211171561368557613684613795565b5b80604052505050565b6000613699826135df565b91507fffffffffffffffffffffffffffffffffffffffffffffffffffffffffffffffff8214156136cc576136cb613708565b5b600182019050919050565b60006136e2826135df565b91506136ed836135df565b9250826136fd576136fc613737565b5b828206905092915050565b7f4e487b7100000000000000000000000000000000000000000000000000000000600052601160045260246000fd5b7f4e487b7100000000000000000000000000000000000000000000000000000000600052601260045260246000fd5b7f4e487b7100000000000000000000000000000000000000000000000000000000600052602260045260246000fd5b7f4e487b7100000000000000000000000000000000000000000000000000000000600052604160045260246000fd5b6000601f19601f8301169050919050565b7f5472616e73666572206f6620666565206661696c656400000000000000000000600082015250565b7f496e76616c696420616464726573730000000000000000000000000000000000600082015250565b7f455243373231456e756d657261626c653a206f776e657220696e646578206f7560008201527f74206f6620626f756e6473000000000000000000000000000000000000000000602082015250565b7f4552433732313a207472616e7366657220746f206e6f6e20455243373231526560008201527f63656976657220696d706c656d656e7465720000000000000000000000000000602082015250565b7f4f776e61626c653a206e6577206f776e657220697320746865207a65726f206160008201527f6464726573730000000000000000000000000000000000000000000000000000602082015250565b7f4552433732313a207472616e736665722066726f6d20696e636f72726563742060008201527f6f776e6572000000000000000000000000000000000000000000000000000000602082015250565b7f4552433732313a20746f6b656e20616c7265616479206d696e74656400000000600082015250565b7f4552433732313a207472616e7366657220746f20746865207a65726f2061646460008201527f7265737300000000000000000000000000000000000000000000000000000000602082015250565b7f4552433732313a20617070726f766520746f2063616c6c657200000000000000600082015250565b7f4552433732313a2061646472657373207a65726f206973206e6f74206120766160008201527f6c6964206f776e65720000000000000000000000000000000000000000000000602082015250565b7f45524337323155524953746f726167653a2055524920736574206f66206e6f6e60008201527f6578697374656e7420746f6b656e000000000000000000000000000000000000602082015250565b7f4552433732313a20617070726f76652063616c6c6572206973206e6f7420746f60008201527f6b656e206f776e6572206e6f7220617070726f76656420666f7220616c6c0000602082015250565b7f4552433732313a206d696e7420746f20746865207a65726f2061646472657373600082015250565b7f43656c6f20737570706c696564206e6f7420757020746f206d696e74696e672060008201527f6665650000000000000000000000000000000000000000000000000000000000602082015250565b7f4f776e61626c653a2063616c6c6572206973206e6f7420746865206f776e6572600082015250565b7f4552433732313a20696e76616c696420746f6b656e2049440000000000000000600082015250565b7f4552433732313a20617070726f76616c20746f2063757272656e74206f776e6560008201527f7200000000000000000000000000000000000000000000000000000000000000602082015250565b50565b7f455243373231456e756d657261626c653a20676c6f62616c20696e646578206f60008201527f7574206f6620626f756e64730000000000000000000000000000000000000000602082015250565b7f4552433732313a2063616c6c6572206973206e6f7420746f6b656e206f776e6560008201527f72206e6f7220617070726f766564000000000000000000000000000000000000602082015250565b613cb481613575565b8114613cbf57600080fd5b50565b613ccb81613587565b8114613cd657600080fd5b50565b613ce281613593565b8114613ced57600080fd5b50565b613cf9816135df565b8114613d0457600080fd5b5056fea2646970667358221220ce96d0e3ddd46585de48c678ac6ffe3cbba2525441963ceaa0d79220f7cd36dd64736f6c63430008040033",
  "linkReferences": {},
  "deployedLinkReferences": {}
}